{
  "_format": "hh-sol-artifact-1",
  "contractName": "MyNFT",
  "sourceName": "contracts/NFT.sol",
  "abi": [
    {
      "inputs": [],
      "stateMutability": "nonpayable",
      "type": "constructor"
    },
    {
      "anonymous": false,
      "inputs": [
        {
          "indexed": true,
          "internalType": "address",
          "name": "owner",
          "type": "address"
        },
        {
          "indexed": true,
          "internalType": "address",
          "name": "approved",
          "type": "address"
        },
        {
          "indexed": true,
          "internalType": "uint256",
          "name": "tokenId",
          "type": "uint256"
        }
      ],
      "name": "Approval",
      "type": "event"
    },
    {
      "anonymous": false,
      "inputs": [
        {
          "indexed": true,
          "internalType": "address",
          "name": "owner",
          "type": "address"
        },
        {
          "indexed": true,
          "internalType": "address",
          "name": "operator",
          "type": "address"
        },
        {
          "indexed": false,
          "internalType": "bool",
          "name": "approved",
          "type": "bool"
        }
      ],
      "name": "ApprovalForAll",
      "type": "event"
    },
    {
      "anonymous": false,
      "inputs": [
        {
          "indexed": true,
          "internalType": "address",
          "name": "to",
          "type": "address"
        },
        {
          "indexed": false,
          "internalType": "uint256",
          "name": "numberOfNfts",
          "type": "uint256"
        }
      ],
      "name": "NftsMinted",
      "type": "event"
    },
    {
      "anonymous": false,
      "inputs": [
        {
          "indexed": true,
          "internalType": "address",
          "name": "previousOwner",
          "type": "address"
        },
        {
          "indexed": true,
          "internalType": "address",
          "name": "newOwner",
          "type": "address"
        }
      ],
      "name": "OwnershipTransferred",
      "type": "event"
    },
    {
      "anonymous": false,
      "inputs": [
        {
          "indexed": true,
          "internalType": "address",
          "name": "from",
          "type": "address"
        },
        {
          "indexed": true,
          "internalType": "address",
          "name": "to",
          "type": "address"
        },
        {
          "indexed": true,
          "internalType": "uint256",
          "name": "tokenId",
          "type": "uint256"
        }
      ],
      "name": "Transfer",
      "type": "event"
    },
    {
      "inputs": [
        {
          "internalType": "address",
          "name": "to",
          "type": "address"
        },
        {
          "internalType": "uint256",
          "name": "tokenId",
          "type": "uint256"
        }
      ],
      "name": "approve",
      "outputs": [],
      "stateMutability": "nonpayable",
      "type": "function"
    },
    {
      "inputs": [
        {
          "internalType": "address",
          "name": "owner",
          "type": "address"
        }
      ],
      "name": "balanceOf",
      "outputs": [
        {
          "internalType": "uint256",
          "name": "",
          "type": "uint256"
        }
      ],
      "stateMutability": "view",
      "type": "function"
    },
    {
      "inputs": [
        {
          "internalType": "uint256",
          "name": "tokenId",
          "type": "uint256"
        }
      ],
      "name": "getApproved",
      "outputs": [
        {
          "internalType": "address",
          "name": "",
          "type": "address"
        }
      ],
      "stateMutability": "view",
      "type": "function"
    },
    {
      "inputs": [
        {
          "internalType": "address",
          "name": "owner",
          "type": "address"
        },
        {
          "internalType": "address",
          "name": "operator",
          "type": "address"
        }
      ],
      "name": "isApprovedForAll",
      "outputs": [
        {
          "internalType": "bool",
          "name": "",
          "type": "bool"
        }
      ],
      "stateMutability": "view",
      "type": "function"
    },
    {
      "inputs": [
        {
          "internalType": "string[]",
          "name": "metadata",
          "type": "string[]"
        }
      ],
      "name": "mintMultiple",
      "outputs": [],
      "stateMutability": "nonpayable",
      "type": "function"
    },
    {
      "inputs": [
        {
          "internalType": "address",
          "name": "recipient",
          "type": "address"
        },
        {
          "internalType": "string",
          "name": "tokenURI",
          "type": "string"
        }
      ],
      "name": "mintNFT",
      "outputs": [
        {
          "internalType": "uint256",
          "name": "",
          "type": "uint256"
        }
      ],
      "stateMutability": "nonpayable",
      "type": "function"
    },
    {
      "inputs": [],
      "name": "name",
      "outputs": [
        {
          "internalType": "string",
          "name": "",
          "type": "string"
        }
      ],
      "stateMutability": "view",
      "type": "function"
    },
    {
      "inputs": [],
      "name": "nextTokenId",
      "outputs": [
        {
          "internalType": "uint256",
          "name": "",
          "type": "uint256"
        }
      ],
      "stateMutability": "view",
      "type": "function"
    },
    {
      "inputs": [],
      "name": "owner",
      "outputs": [
        {
          "internalType": "address",
          "name": "",
          "type": "address"
        }
      ],
      "stateMutability": "view",
      "type": "function"
    },
    {
      "inputs": [
        {
          "internalType": "uint256",
          "name": "tokenId",
          "type": "uint256"
        }
      ],
      "name": "ownerOf",
      "outputs": [
        {
          "internalType": "address",
          "name": "",
          "type": "address"
        }
      ],
      "stateMutability": "view",
      "type": "function"
    },
    {
      "inputs": [],
      "name": "renounceOwnership",
      "outputs": [],
      "stateMutability": "nonpayable",
      "type": "function"
    },
    {
      "inputs": [
        {
          "internalType": "address",
          "name": "from",
          "type": "address"
        },
        {
          "internalType": "address",
          "name": "to",
          "type": "address"
        },
        {
          "internalType": "uint256",
          "name": "tokenId",
          "type": "uint256"
        }
      ],
      "name": "safeTransferFrom",
      "outputs": [],
      "stateMutability": "nonpayable",
      "type": "function"
    },
    {
      "inputs": [
        {
          "internalType": "address",
          "name": "from",
          "type": "address"
        },
        {
          "internalType": "address",
          "name": "to",
          "type": "address"
        },
        {
          "internalType": "uint256",
          "name": "tokenId",
          "type": "uint256"
        },
        {
          "internalType": "bytes",
          "name": "data",
          "type": "bytes"
        }
      ],
      "name": "safeTransferFrom",
      "outputs": [],
      "stateMutability": "nonpayable",
      "type": "function"
    },
    {
      "inputs": [
        {
          "internalType": "address",
          "name": "operator",
          "type": "address"
        },
        {
          "internalType": "bool",
          "name": "approved",
          "type": "bool"
        }
      ],
      "name": "setApprovalForAll",
      "outputs": [],
      "stateMutability": "nonpayable",
      "type": "function"
    },
    {
      "inputs": [
        {
          "internalType": "bytes4",
          "name": "interfaceId",
          "type": "bytes4"
        }
      ],
      "name": "supportsInterface",
      "outputs": [
        {
          "internalType": "bool",
          "name": "",
          "type": "bool"
        }
      ],
      "stateMutability": "view",
      "type": "function"
    },
    {
      "inputs": [],
      "name": "symbol",
      "outputs": [
        {
          "internalType": "string",
          "name": "",
          "type": "string"
        }
      ],
      "stateMutability": "view",
      "type": "function"
    },
    {
      "inputs": [
        {
          "internalType": "uint256",
          "name": "tokenId",
          "type": "uint256"
        }
      ],
      "name": "tokenURI",
      "outputs": [
        {
          "internalType": "string",
          "name": "",
          "type": "string"
        }
      ],
      "stateMutability": "view",
      "type": "function"
    },
    {
      "inputs": [
        {
          "internalType": "address",
          "name": "from",
          "type": "address"
        },
        {
          "internalType": "address",
          "name": "to",
          "type": "address"
        },
        {
          "internalType": "uint256",
          "name": "tokenId",
          "type": "uint256"
        }
      ],
      "name": "transferFrom",
      "outputs": [],
      "stateMutability": "nonpayable",
      "type": "function"
    },
    {
      "inputs": [
        {
          "internalType": "address",
          "name": "newOwner",
          "type": "address"
        }
      ],
      "name": "transferOwnership",
      "outputs": [],
      "stateMutability": "nonpayable",
      "type": "function"
    }
  ],
  "bytecode": "0x608060405260006009553480156200001657600080fd5b506040518060400160405280601381526020017f50616e676f6c696e20446567656e6973746120000000000000000000000000008152506040518060400160405280600581526020017f444547454e00000000000000000000000000000000000000000000000000000081525081600090805190602001906200009b929190620001ab565b508060019080519060200190620000b4929190620001ab565b505050620000d7620000cb620000dd60201b60201c565b620000e560201b60201c565b620002c0565b600033905090565b6000600760009054906101000a900473ffffffffffffffffffffffffffffffffffffffff16905081600760006101000a81548173ffffffffffffffffffffffffffffffffffffffff021916908373ffffffffffffffffffffffffffffffffffffffff1602179055508173ffffffffffffffffffffffffffffffffffffffff168173ffffffffffffffffffffffffffffffffffffffff167f8be0079c531659141344cd1fd0a4f28419497f9722a3daafe3b4186f6b6457e060405160405180910390a35050565b828054620001b9906200025b565b90600052602060002090601f016020900481019282620001dd576000855562000229565b82601f10620001f857805160ff191683800117855562000229565b8280016001018555821562000229579182015b82811115620002285782518255916020019190600101906200020b565b5b5090506200023891906200023c565b5090565b5b80821115620002575760008160009055506001016200023d565b5090565b600060028204905060018216806200027457607f821691505b602082108114156200028b576200028a62000291565b5b50919050565b7f4e487b7100000000000000000000000000000000000000000000000000000000600052602260045260246000fd5b612f8b80620002d06000396000f3fe608060405234801561001057600080fd5b50600436106101215760003560e01c806375794a3c116100ad578063c87b56dd11610071578063c87b56dd146102f4578063e4adc98f14610324578063e985e9c514610340578063eacabe1414610370578063f2fde38b146103a057610121565b806375794a3c146102625780638da5cb5b1461028057806395d89b411461029e578063a22cb465146102bc578063b88d4fde146102d857610121565b806323b872dd116100f457806323b872dd146101c057806342842e0e146101dc5780636352211e146101f857806370a0823114610228578063715018a61461025857610121565b806301ffc9a71461012657806306fdde0314610156578063081812fc14610174578063095ea7b3146101a4575b600080fd5b610140600480360381019061013b9190612297565b6103bc565b60405161014d9190612657565b60405180910390f35b61015e61049e565b60405161016b9190612672565b60405180910390f35b61018e600480360381019061018991906122e9565b610530565b60405161019b91906125f0565b60405180910390f35b6101be60048036038101906101b9919061221a565b610576565b005b6101da60048036038101906101d591906120c0565b61068e565b005b6101f660048036038101906101f191906120c0565b6106ee565b005b610212600480360381019061020d91906122e9565b61070e565b60405161021f91906125f0565b60405180910390f35b610242600480360381019061023d919061205b565b610795565b60405161024f9190612854565b60405180910390f35b61026061084d565b005b61026a610861565b6040516102779190612854565b60405180910390f35b610288610867565b60405161029591906125f0565b60405180910390f35b6102a6610891565b6040516102b39190612672565b60405180910390f35b6102d660048036038101906102d1919061218a565b610923565b005b6102f260048036038101906102ed919061210f565b610939565b005b61030e600480360381019061030991906122e9565b61099b565b60405161031b9190612672565b60405180910390f35b61033e60048036038101906103399190612256565b610aae565b005b61035a60048036038101906103559190612084565b610b41565b6040516103679190612657565b60405180910390f35b61038a600480360381019061038591906121c6565b610bd5565b6040516103979190612854565b60405180910390f35b6103ba60048036038101906103b5919061205b565b610c15565b005b60007f80ac58cd000000000000000000000000000000000000000000000000000000007bffffffffffffffffffffffffffffffffffffffffffffffffffffffff1916827bffffffffffffffffffffffffffffffffffffffffffffffffffffffff1916148061048757507f5b5e139f000000000000000000000000000000000000000000000000000000007bffffffffffffffffffffffffffffffffffffffffffffffffffffffff1916827bffffffffffffffffffffffffffffffffffffffffffffffffffffffff1916145b80610497575061049682610c99565b5b9050919050565b6060600080546104ad90612a1b565b80601f01602080910402602001604051908101604052809291908181526020018280546104d990612a1b565b80156105265780601f106104fb57610100808354040283529160200191610526565b820191906000526020600020905b81548152906001019060200180831161050957829003601f168201915b5050505050905090565b600061053b82610d03565b6004600083815260200190815260200160002060009054906101000a900473ffffffffffffffffffffffffffffffffffffffff169050919050565b60006105818261070e565b90508073ffffffffffffffffffffffffffffffffffffffff168373ffffffffffffffffffffffffffffffffffffffff1614156105f2576040517f08c379a00000000000000000000000000000000000000000000000000000000081526004016105e990612814565b60405180910390fd5b8073ffffffffffffffffffffffffffffffffffffffff16610611610d4e565b73ffffffffffffffffffffffffffffffffffffffff161480610640575061063f8161063a610d4e565b610b41565b5b61067f576040517f08c379a000000000000000000000000000000000000000000000000000000000815260040161067690612834565b60405180910390fd5b6106898383610d56565b505050565b61069f610699610d4e565b82610e0f565b6106de576040517f08c379a00000000000000000000000000000000000000000000000000000000081526004016106d590612694565b60405180910390fd5b6106e9838383610ea4565b505050565b61070983838360405180602001604052806000815250610939565b505050565b60008061071a8361119e565b9050600073ffffffffffffffffffffffffffffffffffffffff168173ffffffffffffffffffffffffffffffffffffffff16141561078c576040517f08c379a0000000000000000000000000000000000000000000000000000000008152600401610783906127f4565b60405180910390fd5b80915050919050565b60008073ffffffffffffffffffffffffffffffffffffffff168273ffffffffffffffffffffffffffffffffffffffff161415610806576040517f08c379a00000000000000000000000000000000000000000000000000000000081526004016107fd90612774565b60405180910390fd5b600360008373ffffffffffffffffffffffffffffffffffffffff1673ffffffffffffffffffffffffffffffffffffffff168152602001908152602001600020549050919050565b6108556111db565b61085f6000611259565b565b60095481565b6000600760009054906101000a900473ffffffffffffffffffffffffffffffffffffffff16905090565b6060600180546108a090612a1b565b80601f01602080910402602001604051908101604052809291908181526020018280546108cc90612a1b565b80156109195780601f106108ee57610100808354040283529160200191610919565b820191906000526020600020905b8154815290600101906020018083116108fc57829003601f168201915b5050505050905090565b61093561092e610d4e565b838361131f565b5050565b61094a610944610d4e565b83610e0f565b610989576040517f08c379a000000000000000000000000000000000000000000000000000000000815260040161098090612694565b60405180910390fd5b6109958484848461148c565b50505050565b60606109a682610d03565b60006006600084815260200190815260200160002080546109c690612a1b565b80601f01602080910402602001604051908101604052809291908181526020018280546109f290612a1b565b8015610a3f5780601f10610a1457610100808354040283529160200191610a3f565b820191906000526020600020905b815481529060010190602001808311610a2257829003601f168201915b505050505090506000610a506114e8565b9050600081511415610a66578192505050610aa9565b600082511115610a9b578082604051602001610a839291906125cc565b60405160208183030381529060405292505050610aa9565b610aa4846114ff565b925050505b919050565b60005b8151811015610b3d57610ac633600954611567565b610b12600954838381518110610b05577f4e487b7100000000000000000000000000000000000000000000000000000000600052603260045260246000fd5b6020026020010151611585565b60096000815480929190610b2590612a7e565b91905055508080610b3590612a7e565b915050610ab1565b5050565b6000600560008473ffffffffffffffffffffffffffffffffffffffff1673ffffffffffffffffffffffffffffffffffffffff16815260200190815260200160002060008373ffffffffffffffffffffffffffffffffffffffff1673ffffffffffffffffffffffffffffffffffffffff16815260200190815260200160002060009054906101000a900460ff16905092915050565b6000610bdf6111db565b610be960086115f9565b6000610bf5600861160f565b9050610c01848261161d565b610c0b8184611585565b8091505092915050565b610c1d6111db565b600073ffffffffffffffffffffffffffffffffffffffff168173ffffffffffffffffffffffffffffffffffffffff161415610c8d576040517f08c379a0000000000000000000000000000000000000000000000000000000008152600401610c84906126d4565b60405180910390fd5b610c9681611259565b50565b60007f01ffc9a7000000000000000000000000000000000000000000000000000000007bffffffffffffffffffffffffffffffffffffffffffffffffffffffff1916827bffffffffffffffffffffffffffffffffffffffffffffffffffffffff1916149050919050565b610d0c8161183b565b610d4b576040517f08c379a0000000000000000000000000000000000000000000000000000000008152600401610d42906127f4565b60405180910390fd5b50565b600033905090565b816004600083815260200190815260200160002060006101000a81548173ffffffffffffffffffffffffffffffffffffffff021916908373ffffffffffffffffffffffffffffffffffffffff160217905550808273ffffffffffffffffffffffffffffffffffffffff16610dc98361070e565b73ffffffffffffffffffffffffffffffffffffffff167f8c5be1e5ebec7d5bd14f71427d1e84f3dd0314c0f7b2291e5b200ac8c7c3b92560405160405180910390a45050565b600080610e1b8361070e565b90508073ffffffffffffffffffffffffffffffffffffffff168473ffffffffffffffffffffffffffffffffffffffff161480610e5d5750610e5c8185610b41565b5b80610e9b57508373ffffffffffffffffffffffffffffffffffffffff16610e8384610530565b73ffffffffffffffffffffffffffffffffffffffff16145b91505092915050565b8273ffffffffffffffffffffffffffffffffffffffff16610ec48261070e565b73ffffffffffffffffffffffffffffffffffffffff1614610f1a576040517f08c379a0000000000000000000000000000000000000000000000000000000008152600401610f11906126f4565b60405180910390fd5b600073ffffffffffffffffffffffffffffffffffffffff168273ffffffffffffffffffffffffffffffffffffffff161415610f8a576040517f08c379a0000000000000000000000000000000000000000000000000000000008152600401610f8190612734565b60405180910390fd5b610f97838383600161187c565b8273ffffffffffffffffffffffffffffffffffffffff16610fb78261070e565b73ffffffffffffffffffffffffffffffffffffffff161461100d576040517f08c379a0000000000000000000000000000000000000000000000000000000008152600401611004906126f4565b60405180910390fd5b6004600082815260200190815260200160002060006101000a81549073ffffffffffffffffffffffffffffffffffffffff02191690556001600360008573ffffffffffffffffffffffffffffffffffffffff1673ffffffffffffffffffffffffffffffffffffffff168152602001908152602001600020600082825403925050819055506001600360008473ffffffffffffffffffffffffffffffffffffffff1673ffffffffffffffffffffffffffffffffffffffff16815260200190815260200160002060008282540192505081905550816002600083815260200190815260200160002060006101000a81548173ffffffffffffffffffffffffffffffffffffffff021916908373ffffffffffffffffffffffffffffffffffffffff160217905550808273ffffffffffffffffffffffffffffffffffffffff168473ffffffffffffffffffffffffffffffffffffffff167fddf252ad1be2c89b69c2b068fc378daa952ba7f163c4a11628f55a4df523b3ef60405160405180910390a46111998383836001611882565b505050565b60006002600083815260200190815260200160002060009054906101000a900473ffffffffffffffffffffffffffffffffffffffff169050919050565b6111e3610d4e565b73ffffffffffffffffffffffffffffffffffffffff16611201610867565b73ffffffffffffffffffffffffffffffffffffffff1614611257576040517f08c379a000000000000000000000000000000000000000000000000000000000815260040161124e906127d4565b60405180910390fd5b565b6000600760009054906101000a900473ffffffffffffffffffffffffffffffffffffffff16905081600760006101000a81548173ffffffffffffffffffffffffffffffffffffffff021916908373ffffffffffffffffffffffffffffffffffffffff1602179055508173ffffffffffffffffffffffffffffffffffffffff168173ffffffffffffffffffffffffffffffffffffffff167f8be0079c531659141344cd1fd0a4f28419497f9722a3daafe3b4186f6b6457e060405160405180910390a35050565b8173ffffffffffffffffffffffffffffffffffffffff168373ffffffffffffffffffffffffffffffffffffffff16141561138e576040517f08c379a000000000000000000000000000000000000000000000000000000000815260040161138590612754565b60405180910390fd5b80600560008573ffffffffffffffffffffffffffffffffffffffff1673ffffffffffffffffffffffffffffffffffffffff16815260200190815260200160002060008473ffffffffffffffffffffffffffffffffffffffff1673ffffffffffffffffffffffffffffffffffffffff16815260200190815260200160002060006101000a81548160ff0219169083151502179055508173ffffffffffffffffffffffffffffffffffffffff168373ffffffffffffffffffffffffffffffffffffffff167f17307eab39ab6107e8899845ad3d59bd9653f200f220920489ca2b5937696c318360405161147f9190612657565b60405180910390a3505050565b611497848484610ea4565b6114a384848484611888565b6114e2576040517f08c379a00000000000000000000000000000000000000000000000000000000081526004016114d9906126b4565b60405180910390fd5b50505050565b606060405180602001604052806000815250905090565b606061150a82610d03565b60006115146114e8565b90506000815111611534576040518060200160405280600081525061155f565b8061153e84611a1f565b60405160200161154f9291906125cc565b6040516020818303038152906040525b915050919050565b611581828260405180602001604052806000815250611b43565b5050565b61158e8261183b565b6115cd576040517f08c379a00000000000000000000000000000000000000000000000000000000081526004016115c490612794565b60405180910390fd5b806006600084815260200190815260200160002090805190602001906115f4929190611df8565b505050565b6001816000016000828254019250508190555050565b600081600001549050919050565b600073ffffffffffffffffffffffffffffffffffffffff168273ffffffffffffffffffffffffffffffffffffffff16141561168d576040517f08c379a0000000000000000000000000000000000000000000000000000000008152600401611684906127b4565b60405180910390fd5b6116968161183b565b156116d6576040517f08c379a00000000000000000000000000000000000000000000000000000000081526004016116cd90612714565b60405180910390fd5b6116e460008383600161187c565b6116ed8161183b565b1561172d576040517f08c379a000000000000000000000000000000000000000000000000000000000815260040161172490612714565b60405180910390fd5b6001600360008473ffffffffffffffffffffffffffffffffffffffff1673ffffffffffffffffffffffffffffffffffffffff16815260200190815260200160002060008282540192505081905550816002600083815260200190815260200160002060006101000a81548173ffffffffffffffffffffffffffffffffffffffff021916908373ffffffffffffffffffffffffffffffffffffffff160217905550808273ffffffffffffffffffffffffffffffffffffffff16600073ffffffffffffffffffffffffffffffffffffffff167fddf252ad1be2c89b69c2b068fc378daa952ba7f163c4a11628f55a4df523b3ef60405160405180910390a4611837600083836001611882565b5050565b60008073ffffffffffffffffffffffffffffffffffffffff1661185d8361119e565b73ffffffffffffffffffffffffffffffffffffffff1614159050919050565b50505050565b50505050565b60006118a98473ffffffffffffffffffffffffffffffffffffffff16611b9e565b15611a12578373ffffffffffffffffffffffffffffffffffffffff1663150b7a026118d2610d4e565b8786866040518563ffffffff1660e01b81526004016118f4949392919061260b565b602060405180830381600087803b15801561190e57600080fd5b505af192505050801561193f57506040513d601f19601f8201168201806040525081019061193c91906122c0565b60015b6119c2573d806000811461196f576040519150601f19603f3d011682016040523d82523d6000602084013e611974565b606091505b506000815114156119ba576040517f08c379a00000000000000000000000000000000000000000000000000000000081526004016119b1906126b4565b60405180910390fd5b805181602001fd5b63150b7a0260e01b7bffffffffffffffffffffffffffffffffffffffffffffffffffffffff1916817bffffffffffffffffffffffffffffffffffffffffffffffffffffffff191614915050611a17565b600190505b949350505050565b606060006001611a2e84611bc1565b01905060008167ffffffffffffffff811115611a73577f4e487b7100000000000000000000000000000000000000000000000000000000600052604160045260246000fd5b6040519080825280601f01601f191660200182016040528015611aa55781602001600182028036833780820191505090505b509050600082602001820190505b600115611b38578080600190039150507f3031323334353637383961626364656600000000000000000000000000000000600a86061a8153600a8581611b22577f4e487b7100000000000000000000000000000000000000000000000000000000600052601260045260246000fd5b0494506000851415611b3357611b38565b611ab3565b819350505050919050565b611b4d838361161d565b611b5a6000848484611888565b611b99576040517f08c379a0000000000000000000000000000000000000000000000000000000008152600401611b90906126b4565b60405180910390fd5b505050565b6000808273ffffffffffffffffffffffffffffffffffffffff163b119050919050565b600080600090507a184f03e93ff9f4daa797ed6e38ed64bf6a1f0100000000000000008310611c45577a184f03e93ff9f4daa797ed6e38ed64bf6a1f0100000000000000008381611c3b577f4e487b7100000000000000000000000000000000000000000000000000000000600052601260045260246000fd5b0492506040810190505b6d04ee2d6d415b85acef81000000008310611ca8576d04ee2d6d415b85acef81000000008381611c9e577f4e487b7100000000000000000000000000000000000000000000000000000000600052601260045260246000fd5b0492506020810190505b662386f26fc100008310611cfd57662386f26fc100008381611cf3577f4e487b7100000000000000000000000000000000000000000000000000000000600052601260045260246000fd5b0492506010810190505b6305f5e1008310611d4c576305f5e1008381611d42577f4e487b7100000000000000000000000000000000000000000000000000000000600052601260045260246000fd5b0492506008810190505b6127108310611d97576127108381611d8d577f4e487b7100000000000000000000000000000000000000000000000000000000600052601260045260246000fd5b0492506004810190505b60648310611de05760648381611dd6577f4e487b7100000000000000000000000000000000000000000000000000000000600052601260045260246000fd5b0492506002810190505b600a8310611def576001810190505b80915050919050565b828054611e0490612a1b565b90600052602060002090601f016020900481019282611e265760008555611e6d565b82601f10611e3f57805160ff1916838001178555611e6d565b82800160010185558215611e6d579182015b82811115611e6c578251825591602001919060010190611e51565b5b509050611e7a9190611e7e565b5090565b5b80821115611e97576000816000905550600101611e7f565b5090565b6000611eae611ea984612894565b61286f565b9050808382526020820190508260005b85811015611eee5781358501611ed4888261201c565b845260208401935060208301925050600181019050611ebe565b5050509392505050565b6000611f0b611f06846128c0565b61286f565b905082815260208101848484011115611f2357600080fd5b611f2e8482856129d9565b509392505050565b6000611f49611f44846128f1565b61286f565b905082815260208101848484011115611f6157600080fd5b611f6c8482856129d9565b509392505050565b600081359050611f8381612ef9565b92915050565b600082601f830112611f9a57600080fd5b8135611faa848260208601611e9b565b91505092915050565b600081359050611fc281612f10565b92915050565b600081359050611fd781612f27565b92915050565b600081519050611fec81612f27565b92915050565b600082601f83011261200357600080fd5b8135612013848260208601611ef8565b91505092915050565b600082601f83011261202d57600080fd5b813561203d848260208601611f36565b91505092915050565b60008135905061205581612f3e565b92915050565b60006020828403121561206d57600080fd5b600061207b84828501611f74565b91505092915050565b6000806040838503121561209757600080fd5b60006120a585828601611f74565b92505060206120b685828601611f74565b9150509250929050565b6000806000606084860312156120d557600080fd5b60006120e386828701611f74565b93505060206120f486828701611f74565b925050604061210586828701612046565b9150509250925092565b6000806000806080858703121561212557600080fd5b600061213387828801611f74565b945050602061214487828801611f74565b935050604061215587828801612046565b925050606085013567ffffffffffffffff81111561217257600080fd5b61217e87828801611ff2565b91505092959194509250565b6000806040838503121561219d57600080fd5b60006121ab85828601611f74565b92505060206121bc85828601611fb3565b9150509250929050565b600080604083850312156121d957600080fd5b60006121e785828601611f74565b925050602083013567ffffffffffffffff81111561220457600080fd5b6122108582860161201c565b9150509250929050565b6000806040838503121561222d57600080fd5b600061223b85828601611f74565b925050602061224c85828601612046565b9150509250929050565b60006020828403121561226857600080fd5b600082013567ffffffffffffffff81111561228257600080fd5b61228e84828501611f89565b91505092915050565b6000602082840312156122a957600080fd5b60006122b784828501611fc8565b91505092915050565b6000602082840312156122d257600080fd5b60006122e084828501611fdd565b91505092915050565b6000602082840312156122fb57600080fd5b600061230984828501612046565b91505092915050565b61231b81612965565b82525050565b61232a81612977565b82525050565b600061233b82612922565b6123458185612938565b93506123558185602086016129e8565b61235e81612b54565b840191505092915050565b60006123748261292d565b61237e8185612949565b935061238e8185602086016129e8565b61239781612b54565b840191505092915050565b60006123ad8261292d565b6123b7818561295a565b93506123c78185602086016129e8565b80840191505092915050565b60006123e0602d83612949565b91506123eb82612b65565b604082019050919050565b6000612403603283612949565b915061240e82612bb4565b604082019050919050565b6000612426602683612949565b915061243182612c03565b604082019050919050565b6000612449602583612949565b915061245482612c52565b604082019050919050565b600061246c601c83612949565b915061247782612ca1565b602082019050919050565b600061248f602483612949565b915061249a82612cca565b604082019050919050565b60006124b2601983612949565b91506124bd82612d19565b602082019050919050565b60006124d5602983612949565b91506124e082612d42565b604082019050919050565b60006124f8602e83612949565b915061250382612d91565b604082019050919050565b600061251b602083612949565b915061252682612de0565b602082019050919050565b600061253e602083612949565b915061254982612e09565b602082019050919050565b6000612561601883612949565b915061256c82612e32565b602082019050919050565b6000612584602183612949565b915061258f82612e5b565b604082019050919050565b60006125a7603d83612949565b91506125b282612eaa565b604082019050919050565b6125c6816129cf565b82525050565b60006125d882856123a2565b91506125e482846123a2565b91508190509392505050565b60006020820190506126056000830184612312565b92915050565b60006080820190506126206000830187612312565b61262d6020830186612312565b61263a60408301856125bd565b818103606083015261264c8184612330565b905095945050505050565b600060208201905061266c6000830184612321565b92915050565b6000602082019050818103600083015261268c8184612369565b905092915050565b600060208201905081810360008301526126ad816123d3565b9050919050565b600060208201905081810360008301526126cd816123f6565b9050919050565b600060208201905081810360008301526126ed81612419565b9050919050565b6000602082019050818103600083015261270d8161243c565b9050919050565b6000602082019050818103600083015261272d8161245f565b9050919050565b6000602082019050818103600083015261274d81612482565b9050919050565b6000602082019050818103600083015261276d816124a5565b9050919050565b6000602082019050818103600083015261278d816124c8565b9050919050565b600060208201905081810360008301526127ad816124eb565b9050919050565b600060208201905081810360008301526127cd8161250e565b9050919050565b600060208201905081810360008301526127ed81612531565b9050919050565b6000602082019050818103600083015261280d81612554565b9050919050565b6000602082019050818103600083015261282d81612577565b9050919050565b6000602082019050818103600083015261284d8161259a565b9050919050565b600060208201905061286960008301846125bd565b92915050565b600061287961288a565b90506128858282612a4d565b919050565b6000604051905090565b600067ffffffffffffffff8211156128af576128ae612b25565b5b602082029050602081019050919050565b600067ffffffffffffffff8211156128db576128da612b25565b5b6128e482612b54565b9050602081019050919050565b600067ffffffffffffffff82111561290c5761290b612b25565b5b61291582612b54565b9050602081019050919050565b600081519050919050565b600081519050919050565b600082825260208201905092915050565b600082825260208201905092915050565b600081905092915050565b6000612970826129af565b9050919050565b60008115159050919050565b60007fffffffff0000000000000000000000000000000000000000000000000000000082169050919050565b600073ffffffffffffffffffffffffffffffffffffffff82169050919050565b6000819050919050565b82818337600083830152505050565b60005b83811015612a065780820151818401526020810190506129eb565b83811115612a15576000848401525b50505050565b60006002820490506001821680612a3357607f821691505b60208210811415612a4757612a46612af6565b5b50919050565b612a5682612b54565b810181811067ffffffffffffffff82111715612a7557612a74612b25565b5b80604052505050565b6000612a89826129cf565b91507fffffffffffffffffffffffffffffffffffffffffffffffffffffffffffffffff821415612abc57612abb612ac7565b5b600182019050919050565b7f4e487b7100000000000000000000000000000000000000000000000000000000600052601160045260246000fd5b7f4e487b7100000000000000000000000000000000000000000000000000000000600052602260045260246000fd5b7f4e487b7100000000000000000000000000000000000000000000000000000000600052604160045260246000fd5b6000601f19601f8301169050919050565b7f4552433732313a2063616c6c6572206973206e6f7420746f6b656e206f776e6560008201527f72206f7220617070726f76656400000000000000000000000000000000000000602082015250565b7f4552433732313a207472616e7366657220746f206e6f6e20455243373231526560008201527f63656976657220696d706c656d656e7465720000000000000000000000000000602082015250565b7f4f776e61626c653a206e6577206f776e657220697320746865207a65726f206160008201527f6464726573730000000000000000000000000000000000000000000000000000602082015250565b7f4552433732313a207472616e736665722066726f6d20696e636f72726563742060008201527f6f776e6572000000000000000000000000000000000000000000000000000000602082015250565b7f4552433732313a20746f6b656e20616c7265616479206d696e74656400000000600082015250565b7f4552433732313a207472616e7366657220746f20746865207a65726f2061646460008201527f7265737300000000000000000000000000000000000000000000000000000000602082015250565b7f4552433732313a20617070726f766520746f2063616c6c657200000000000000600082015250565b7f4552433732313a2061646472657373207a65726f206973206e6f74206120766160008201527f6c6964206f776e65720000000000000000000000000000000000000000000000602082015250565b7f45524337323155524953746f726167653a2055524920736574206f66206e6f6e60008201527f6578697374656e7420746f6b656e000000000000000000000000000000000000602082015250565b7f4552433732313a206d696e7420746f20746865207a65726f2061646472657373600082015250565b7f4f776e61626c653a2063616c6c6572206973206e6f7420746865206f776e6572600082015250565b7f4552433732313a20696e76616c696420746f6b656e2049440000000000000000600082015250565b7f4552433732313a20617070726f76616c20746f2063757272656e74206f776e6560008201527f7200000000000000000000000000000000000000000000000000000000000000602082015250565b7f4552433732313a20617070726f76652063616c6c6572206973206e6f7420746f60008201527f6b656e206f776e6572206f7220617070726f76656420666f7220616c6c000000602082015250565b612f0281612965565b8114612f0d57600080fd5b50565b612f1981612977565b8114612f2457600080fd5b50565b612f3081612983565b8114612f3b57600080fd5b50565b612f47816129cf565b8114612f5257600080fd5b5056fea26469706673582212202acb9db27ba7cbbd4111d68cd54a9f8203160e46bfac07fc23c7c0fbbc5dc78b64736f6c63430008010033",
  "linkReferences": {},
  "deployedLinkReferences": {}
}